{
  "contractName": "SimonContract",
  "abi": [
    {
      "anonymous": false,
      "inputs": [
        {
          "indexed": true,
          "internalType": "address",
          "name": "_addr",
          "type": "address"
        },
        {
          "indexed": false,
          "internalType": "uint256",
          "name": "_level",
          "type": "uint256"
        }
      ],
      "name": "GameOverPayReward",
      "type": "event"
    },
    {
      "anonymous": false,
      "inputs": [
        {
          "indexed": true,
          "internalType": "address",
          "name": "_addr",
          "type": "address"
        }
      ],
      "name": "NewUser",
      "type": "event"
    },
    {
      "inputs": [
        {
          "internalType": "address",
          "name": "",
          "type": "address"
        }
      ],
      "name": "gameUsers",
      "outputs": [
        {
          "internalType": "bool",
          "name": "",
          "type": "bool"
        }
      ],
      "stateMutability": "view",
      "type": "function",
      "constant": true
    },
    {
      "stateMutability": "payable",
      "type": "receive",
      "payable": true
    },
    {
      "inputs": [],
      "name": "addUser",
      "outputs": [],
      "stateMutability": "nonpayable",
      "type": "function"
    },
    {
      "inputs": [
        {
          "internalType": "uint256",
          "name": "_level",
          "type": "uint256"
        }
      ],
      "name": "payUser",
      "outputs": [],
      "stateMutability": "nonpayable",
      "type": "function"
    }
  ],
  "bytecode": "0x608060405234801561001057600080fd5b5061054f806100206000396000f3fe6080604052600436106100385760003560e01c806329d7000b14610044578063455c928c14610081578063b5bfa436146100985761003f565b3661003f57005b600080fd5b34801561005057600080fd5b5061006b60048036038101906100669190610323565b6100c1565b604051610078919061036b565b60405180910390f35b34801561008d57600080fd5b506100966100e1565b005b3480156100a457600080fd5b506100bf60048036038101906100ba91906103bc565b61017d565b005b60006020528060005260406000206000915054906101000a900460ff1681565b60016000803373ffffffffffffffffffffffffffffffffffffffff1673ffffffffffffffffffffffffffffffffffffffff16815260200190815260200160002060006101000a81548160ff0219169083151502179055503373ffffffffffffffffffffffffffffffffffffffff167f7ee9b70bf129b91a237044ce07c93c79f5562b96b53c04f7edaf7c9d6711f3d860405160405180910390a2565b600115156000803373ffffffffffffffffffffffffffffffffffffffff1673ffffffffffffffffffffffffffffffffffffffff16815260200190815260200160002060009054906101000a900460ff1615151461020f576040517f08c379a000000000000000000000000000000000000000000000000000000000815260040161020690610446565b60405180910390fd5b60003390508073ffffffffffffffffffffffffffffffffffffffff166108fc670de0b6b3a7640000846102429190610495565b9081150290604051600060405180830381858888f1935050505015801561026d573d6000803e3d6000fd5b503373ffffffffffffffffffffffffffffffffffffffff167f3dc3d67b137ea350f6c04abd6c9a07e0a3d0776f6c20c35edde72b9fc4f76c7c836040516102b491906104fe565b60405180910390a25050565b600080fd5b600073ffffffffffffffffffffffffffffffffffffffff82169050919050565b60006102f0826102c5565b9050919050565b610300816102e5565b811461030b57600080fd5b50565b60008135905061031d816102f7565b92915050565b600060208284031215610339576103386102c0565b5b60006103478482850161030e565b91505092915050565b60008115159050919050565b61036581610350565b82525050565b6000602082019050610380600083018461035c565b92915050565b6000819050919050565b61039981610386565b81146103a457600080fd5b50565b6000813590506103b681610390565b92915050565b6000602082840312156103d2576103d16102c0565b5b60006103e0848285016103a7565b91505092915050565b600082825260208201905092915050565b7f4e6f7420612067616d6520757365722121000000000000000000000000000000600082015250565b60006104306011836103e9565b915061043b826103fa565b602082019050919050565b6000602082019050818103600083015261045f81610423565b9050919050565b7f4e487b7100000000000000000000000000000000000000000000000000000000600052601160045260246000fd5b60006104a082610386565b91506104ab83610386565b9250817fffffffffffffffffffffffffffffffffffffffffffffffffffffffffffffffff04831182151516156104e4576104e3610466565b5b828202905092915050565b6104f881610386565b82525050565b600060208201905061051360008301846104ef565b9291505056fea2646970667358221220694556d2113f27cbac4aac3780ed7fdbcf7b26c768a9b3d9660b1f8d1a7569cb64736f6c634300080a0033",
  "immutableReferences": {},
  "source": "//SPDX-License-Identifier: MIT\npragma solidity ^0.8.10;\n\ncontract SimonContract {\n    mapping(address => bool) public gameUsers;\n    event NewUser(address indexed _addr);\n    event GameOverPayReward(address indexed _addr, uint _level);\n    \n    modifier gameUserOnly {\n        require(gameUsers[msg.sender] == true, \"Not a game user!!\");\n        _;\n    }\n\n    function addUser() public {\n        gameUsers[msg.sender] = true;\n        emit NewUser(msg.sender);\n    }\n\n    function payUser(uint _level) public gameUserOnly {\n        address payable _to = payable(msg.sender);\n        _to.transfer(_level * 1 ether);\n        emit GameOverPayReward(msg.sender, _level);\n    }\n\n    receive() external payable {\n    }\n}",
  "sourcePath": "/Users/krd41222/Desktop/src/Truffle/simon-game/contracts/SimonContract.sol",
  "compiler": {
    "name": "solc",
    "version": "0.8.10+commit.fc410830.Emscripten.clang"
  },
  "schemaVersion": "3.4.3",
  "updatedAt": "2021-12-01T20:58:58.090Z",
  "networkType": "ethereum",
  "devdoc": {
    "kind": "dev",
    "methods": {},
    "version": 1
  },
  "userdoc": {
    "kind": "user",
    "methods": {},
    "version": 1
  }
}