{
  "contractName": "SimonContract",
  "abi": [
    {
      "anonymous": false,
      "inputs": [
        {
          "indexed": true,
          "internalType": "address",
          "name": "_addr",
          "type": "address"
        },
        {
          "indexed": false,
          "internalType": "uint256",
          "name": "_level",
          "type": "uint256"
        }
      ],
      "name": "GameOverPayReward",
      "type": "event"
    },
    {
      "anonymous": false,
      "inputs": [
        {
          "indexed": true,
          "internalType": "address",
          "name": "_addr",
          "type": "address"
        }
      ],
      "name": "NewUser",
      "type": "event"
    },
    {
      "inputs": [
        {
          "internalType": "address",
          "name": "",
          "type": "address"
        }
      ],
      "name": "gameUsers",
      "outputs": [
        {
          "internalType": "bool",
          "name": "",
          "type": "bool"
        }
      ],
      "stateMutability": "view",
      "type": "function",
      "constant": true
    },
    {
      "stateMutability": "payable",
      "type": "receive",
      "payable": true
    },
    {
      "inputs": [],
      "name": "addUser",
      "outputs": [],
      "stateMutability": "nonpayable",
      "type": "function"
    },
    {
      "inputs": [],
      "name": "getBalance",
      "outputs": [
        {
          "internalType": "uint256",
          "name": "",
          "type": "uint256"
        }
      ],
      "stateMutability": "view",
      "type": "function",
      "constant": true
    },
    {
      "inputs": [
        {
          "internalType": "uint256",
          "name": "_level",
          "type": "uint256"
        }
      ],
      "name": "payUser",
      "outputs": [],
      "stateMutability": "nonpayable",
      "type": "function"
    }
  ],
  "bytecode": "0x608060405234801561001057600080fd5b5061064f806100206000396000f3fe6080604052600436106100435760003560e01c806312065fe01461004f57806329d7000b1461007a578063455c928c146100b7578063b5bfa436146100ce5761004a565b3661004a57005b600080fd5b34801561005b57600080fd5b506100646100f7565b604051610071919061036d565b60405180910390f35b34801561008657600080fd5b506100a1600480360381019061009c91906103eb565b6100ff565b6040516100ae9190610433565b60405180910390f35b3480156100c357600080fd5b506100cc61011f565b005b3480156100da57600080fd5b506100f560048036038101906100f0919061047a565b6101bb565b005b600047905090565b60006020528060005260406000206000915054906101000a900460ff1681565b60016000803373ffffffffffffffffffffffffffffffffffffffff1673ffffffffffffffffffffffffffffffffffffffff16815260200190815260200160002060006101000a81548160ff0219169083151502179055503373ffffffffffffffffffffffffffffffffffffffff167f7ee9b70bf129b91a237044ce07c93c79f5562b96b53c04f7edaf7c9d6711f3d860405160405180910390a2565b600115156000803373ffffffffffffffffffffffffffffffffffffffff1673ffffffffffffffffffffffffffffffffffffffff16815260200190815260200160002060009054906101000a900460ff1615151461024d576040517f08c379a000000000000000000000000000000000000000000000000000000000815260040161024490610504565b60405180910390fd5b670de0b6b3a7640000816102619190610553565b4710156102a3576040517f08c379a000000000000000000000000000000000000000000000000000000000815260040161029a906105f9565b60405180910390fd5b60003390508073ffffffffffffffffffffffffffffffffffffffff166108fc670de0b6b3a7640000846102d69190610553565b9081150290604051600060405180830381858888f19350505050158015610301573d6000803e3d6000fd5b503373ffffffffffffffffffffffffffffffffffffffff167f3dc3d67b137ea350f6c04abd6c9a07e0a3d0776f6c20c35edde72b9fc4f76c7c83604051610348919061036d565b60405180910390a25050565b6000819050919050565b61036781610354565b82525050565b6000602082019050610382600083018461035e565b92915050565b600080fd5b600073ffffffffffffffffffffffffffffffffffffffff82169050919050565b60006103b88261038d565b9050919050565b6103c8816103ad565b81146103d357600080fd5b50565b6000813590506103e5816103bf565b92915050565b60006020828403121561040157610400610388565b5b600061040f848285016103d6565b91505092915050565b60008115159050919050565b61042d81610418565b82525050565b60006020820190506104486000830184610424565b92915050565b61045781610354565b811461046257600080fd5b50565b6000813590506104748161044e565b92915050565b6000602082840312156104905761048f610388565b5b600061049e84828501610465565b91505092915050565b600082825260208201905092915050565b7f4e6f7420612067616d6520757365722121000000000000000000000000000000600082015250565b60006104ee6011836104a7565b91506104f9826104b8565b602082019050919050565b6000602082019050818103600083015261051d816104e1565b9050919050565b7f4e487b7100000000000000000000000000000000000000000000000000000000600052601160045260246000fd5b600061055e82610354565b915061056983610354565b9250817fffffffffffffffffffffffffffffffffffffffffffffffffffffffffffffffff04831182151516156105a2576105a1610524565b5b828202905092915050565b7f4e6f7420656e6f7567682066756e647321210000000000000000000000000000600082015250565b60006105e36012836104a7565b91506105ee826105ad565b602082019050919050565b60006020820190508181036000830152610612816105d6565b905091905056fea264697066735822122026d98715119ef5ff56e278a65533351c0030230c4aa9925b2b22dfcdd909498464736f6c634300080a0033",
  "immutableReferences": {},
  "source": "//SPDX-License-Identifier: MIT\npragma solidity ^0.8.10;\n\ncontract SimonContract {\n    mapping(address => bool) public gameUsers;\n    event NewUser(address indexed _addr);\n    event GameOverPayReward(address indexed _addr, uint _level);\n    \n    modifier gameUserOnly {\n        require(gameUsers[msg.sender] == true, \"Not a game user!!\");\n        _;\n    }\n\n    function addUser() public {\n        gameUsers[msg.sender] = true;\n        emit NewUser(msg.sender);\n    }\n\n    function getBalance() public view returns(uint) {\n        return address(this).balance;\n    }\n\n    function payUser(uint _level) public gameUserOnly {\n        require(address(this).balance >= (_level * 1 ether), \"Not enough funds!!\");\n        address payable _to = payable(msg.sender);\n        _to.transfer(_level * 1 ether);\n        emit GameOverPayReward(msg.sender, _level);\n    }\n\n    receive() external payable {\n    }\n}",
  "sourcePath": "/Users/krd41222/Desktop/src/Truffle/simon-game/contracts/SimonContract.sol",
  "compiler": {
    "name": "solc",
    "version": "0.8.10+commit.fc410830.Emscripten.clang"
  },
  "schemaVersion": "3.4.3",
  "updatedAt": "2021-12-03T22:11:47.390Z",
  "networkType": "ethereum",
  "devdoc": {
    "kind": "dev",
    "methods": {},
    "version": 1
  },
  "userdoc": {
    "kind": "user",
    "methods": {},
    "version": 1
  }
}